:020000040000FA
:20000000E01C04000000000010EB000050EA00001EEA0000BEE90000EEE9000080EA0000BB
:2000200040EB000070EB000050EA000050EA000050EA00004E52010050EA000050EA000077
:2000400050EA0000AEE5000050EA0000B0EA000050EA00001AAB000076AB0000D23D0000D0
:20006000FA4A000050EA000050EA000050EA000050EA000042EE000050EA000050EA0000B0
:2000800050EA000050EA000050EA000050EA000050EA00007E8C000050B9000098E50000AE
:2000A000EEAA000046AB0000E0EA000050EA000050EA0000D08600002C4B000050EA000072
:2000C00050EA000050EA000050EA000050EA000050EA000050EA000050EA000050EA000050
:2000E000964A000050EA00006AF2000050EA000050EA0000FEAB0000A6AB000050EA0000E2
:2001000050EA000050EA00009886000050EA000050EA000050EA000050EA0000C84A000053
:2001200050EA000050EA000050EA000050EA000050EA000050EA000050EA000050EA0000EF
:2001400050EA000050EA000050EA000050EA000050EA000050EA000050EA000050EA0000CF
:2001600050EA000050EA000050EA000050EA000050EA000050EA000050EA000050EA0000AF
:2001800050EA000050EA000050EA000050EA000050EA000050EA000050EA000050EA00008F
:2001A00050EA000050EA000050EA000050EA000050EA000050EA000050EA000050EA00006F
:2001C00050EA000050EA000050EA000050EA000050EA000050EA000050EA000050EA00004F
:2001E00050EA000050EA000050EA000050EA000050EA000050EA000050EA000050EA00002F
:2002080010EB000050EA00001EEA0000BEE90000EEE9000080EA000040EB000070EB00002B
:2002280050EA000050EA000050EA00004E52010050EA000050EA000050EA0000AEE5000026
:2002480050EA0000B0EA000050EA00001AAB000076AB0000D23D0000FA4A000050EA000015
:2002680050EA000050EA000050EA000042EE000050EA000050EA000050EA000050EA0000B0
:2002880050EA000050EA000050EA00007E8C000050B9000098E50000EEAA000046AB00008F
:2002A800E0EA000050EA000050EA0000D08600002C4B000050EA000050EA000050EA00007D
:2002C80050EA000050EA000050EA000050EA000050EA000050EA0000964A000050EA0000A0
:2002E8006AF2000050EA000050EA0000FEAB0000A6AB000050EA000050EA000050EA00007E
:200308009886000050EA000050EA000050EA000050EA0000C84A000050EA000050EA000049
:2003280050EA000050EA000050EA000050EA000050EA000050EA000050EA000050EA0000E5
:2003480050EA000050EA000050EA000050EA000050EA000050EA000050EA000050EA0000C5
:2003680050EA000050EA000050EA000050EA000050EA000050EA000050EA000050EA0000A5
:2003880050EA000050EA000050EA000050EA000050EA000050EA000050EA000050EA000085
:2003A80050EA000050EA000050EA000050EA000050EA000050EA000050EA000050EA000065
:2003C80050EA000050EA000050EA000050EA000050EA000050EA000050EA000050EA000045
:1803E80050EA000050EA000050EA000050EA000050EA000050EA0000A1
:200800000404040000000000881F7800020478001B000700080040004F04780000000600F4
:200820000000FA00881F7800000478003FB99700EA8157008000780040402000170007001C
:20084000800078000000E000020035000040EB0000F47800010078004F0478000080FA0034
:20086000000006008001EB0002003700817178008301E800828F5100FCFF3A00000006005A
:200880008001EB000200370061F079008301E800828F5100FCFF3A00000006006200FA0084
:2008A000889FBE008A9FBE000004BE00020578008300780060F92F000F004000B0000700A2
:2008C00088979F0099979F000000EB00A09F9F009A4578000B80FB000000EA00CF04DE004A
:2008E00050C2B30080CF55000200320009047800010037000904E9000800E0000B00340081
:200900001F909700080178008A0078008F9197000300010090979F000000E00093003200E8
:200920002F98970000004400A09F9F000905450050C2B30080CF5500040032000B04E00056
:20094000E3FF3A002F989700890037000000EB00809F9F00F0979F00E0979F00D0979F0072
:20096000C0979F00B0979F00C09F9F000900370080EE21000080500000004000C1ED2100EF
:20098000E10078004F98970001007000C09F9F000A05E8001A4478008800FB0080EE210032
:2009A0007C000700800078000000E000F0FF3A00A0C2B300804F54000E003A00BF88970055
:2009C0000180E900B08F9F0010007800B09F9F000000E00005003D000000EA00B09F9F005F
:2009E0004F9897000020A000C09F9F000A05E80010003700B19F9F0009003700BF98970060
:200A0000F0FF2700808F5000040032006A08B9000000410003004000B09F9F000A05E80097
:200A20001A01FB0003FD2F0003004100E90F5000F2FF3600E0C2B3009A4F1000040032003A
:200A40000080EB00909F9F008A0478001C0037008A04E800A0C2B300994F100007003A0040
:200A6000BF8897000180E900B08F9F0010007800909F9F008A84E800110037000000EB00D1
:200A8000909F9F00090037009F989700F0FF2700808F5000040032006A08B9000000410063
:200AA00003004000909F9F008904E8001901FB0003FD2F0003004100E90F5000F2FF3600B9
:200AC000194478008800FB00E0EE2100310007000000E00002003A00004478000100370087
:200AE0008904E800A87F9F0080C6B300804F540004003A00994F14000A003A00664050002B
:200B000006003700C0C6B300804F540005003A00994F140003003A0065404000A07F9F0021
:200B20008904E8000905E800CBFB2F008F8545001901FB0060F92F000F0040000084E800A4
:200B40008B01780080007800080078001A0007000000E00005003A008B0078000800780056
:200B6000580107000000E00059FF3D000080EB004F05BE004F04BE000080FA000000060092
:200B80000200FA00F1BF9F00010878000080FA0000000600040037000204E00001003A00AD
:200BA000000005000000E80010417800814F5100F9FF3A0000000600889FBE008A1F780020
:200BC00000047800010278008244780003057800E0C6B300804F5100D200320015003C0092
:200BE0006B405000804F5100240032000A003C0070405000804F51000F01320065404000F7
:200C0000804F51007400320050C2B300804F510020013A001C01370040C6B300804F5100A1
:200C20001B00320065404000804F510019013A001700370030C7B300804F5100FE003200C6
:200C400007003C0064405000804F5100620032000040E800804F51000E013A00E7003700FA
:200C600050C7B300804F51005B00320063404000804F510007013A00570037009180E90030
:200C8000010A7800780090009171780007013700A8609000C0C6B30080CF50000A003A005C
:200CA0009400780064805000000A78001000BE004F89DE00CF91DE000002BE000203780073
:200CC000820378001300370010C7B30080CF500003003200A0C6B30080CF500006003A0077
:200CE0009400780068805000000A78003002BE002003BE00070037001480E900000A780020
:200D00001000780000027800CFA2DE000503780086037800049CBE000694BE00A8609000B3
:200D200080C6B30080CF50000E00320020C6B30080CF500005003A000400FB00CF80DE0038
:200D400001017800820178000A00370040C7B30080CF5000030032006640400080CF5000CA
:200D600006003A0004007800CF80DE000101780082017800009CBE000294BE003800BE0071
:200D80002801BE00E00F5000E08F5800E00F5900E08F590003003D0078009000D1C2B300C8
:200DA0000A003700081090000018A3000300320078009000B1C2B300040037000008A30046
:200DC000530032007800900001C2B300017578000000E8004D003700A8609000C0C6B300E5
:200DE00080CF500006003A009400780064805000000A78001002BE006033B80013003700ED
:200E000010C7B30080CF500003003200A0C6B30080CF500006003A00940078006880500038
:200E2000000A78003002BE002003BE00070037001480E900000A7800100078000002780020
:200E4000050020000600200007002000049CBE000694BE00A860900080C6B30080CF50003A
:200E60000E00320020C6B30080CF500005003A000480FB00010020000200200003002000D6
:200E80000A00370040C7B30080CF5000030032006640400080CF500006003A000400780042
:200EA000010020000200200003002000009CBE000294BE00081090000038A3001400320055
:200EC0003800BE002801BE00E00F5000E08F5800E00F5900E08F59000D00320080C7B300E6
:200EE00080CF54000300320080C5B30080CF540007003A007800900001C3B30001757800D1
:200F00008000E80009F578000080E8007004980078009000000045006004980089407800F5
:200F200042003700A8609000C0C6B30080CF5000250032000A003C006440500080CF500098
:200F40002800320000C0E80080CF5000140032006840500080CF500022003A000A00370076
:200F600040C7B30080CF50001E0032006640400080CF50001B0032006940500080CF50005E
:200F800018003A00060037001480E900000A780010007800485C90000848780045003700C3
:200FA0001480E900000A78001002780068089000CF80DE000101780082017800009ABE00AE
:200FC0000292BE003B0037001480E900000A78001001780068089000CF80DE000089BE0051
:200FE000340037001480E900000A780010007800680C9000080878002E0037001180E90094
:201000008008780010007800CF80DE000101780082017800009CBE000294BE0078009000F0
:20102000000045006004980081C7B30008007800EE0007001F0037001480E900000A7800AA
:201040001000780060049800580990000200E00002003D009D010700090037008000EB00AA
:20106000A1010700800078000000E0000300320068009000008050000100370058089000CA
:20108000100C98000B00370078009000027578000600370078009000800045000904E0006C
:2010A00001003A0059C2B300894878000000E800700498000000EB004F0578004F04BE0022
:2010C000000006000400FA00889FBE008A9FBE008C1F78000004780001067800700890001A
:2010E000F80090000100500088089000010050009808900001005000A80890000100500094
:20110000B808900001005000C8089000810550000002220090BF9F0000032300A0BF9F00C2
:20112000081090000028A30018003A000B00E000160034008B04780009057800E28F540063
:20114000020036002A002000020037000900E0000B00340058009000C80190000A017800E8
:20116000EE80570003000100500498000000E000960032006808900000004500600C9800C9
:201180008A8454004240A900EBFF3C00780190000200E0000B00340058009000C801900031
:2011A0008C00780003000100500498000000E0008600320068089000F800900001004000DA
:2011C000600C9800880C90000900E0001500340009057800E28F5400020036002A002000E8
:2011E000020037000900E0000B00340058009000C80190000A017800EC8057000300010003
:20120000500498000000E000700032006808900000004500600C98008A8454004240A9008A
:20122000EBFF3C00180990000200E0000B003400E800900058009000C801900003000100F9
:20124000500498000000E00060003200680890009808900001004000600C9800A80C900077
:201260000900E0001500340009057800E28F5400020036002A002000020037000900E0004D
:201280000B00340058009000C80190000A017800EC80570003000100500498000000E000B8
:2012A0004A0032006808900000004500600C98008A8454004240A900EBFF3C0038099000E5
:2012C0000200E0000D003400E8009000180890008080400058009000C8019000030001003E
:2012E000500498000000E0003800320068089000B808900001004000600C9800C80C9000BF
:201300000900E0001500340009057800E28F5400020036002A002000020037000900E000AC
:201320000B00340058009000C80190000A017800EC80570003000100500498000000E00017
:20134000220032006808900000004500600C98008A8454004240A900EBFF3C000810900095
:201360000028A3001B0032000B00E000190034008B04780009057800E28F54000200360093
:201380002A002000020037000900E0000B00340058009000C80190000A017800EE80570019
:2013A00003000100500498000000E000070032006808900000004500600C98008A84540079
:2013C0004240A90003003400EAFF37000080EB00010037000000EB004F0678004F05BE001E
:2013E0004F04BE000080FA0000000600EF02B000889FBE008A9FBE008C9FBE008E1F7800E1
:2014000000067800B0EC2100C0B79F0080C5B30080CF500008003200A2EB2100C2B79F00E4
:201420007740400080CF500003003A0083002000B3B79F000A00370080C7B30080CF500053
:2014400005003200A4002000B4B79F0080C5B30080CF500002003A0000012000B0B79F008D
:201460003C04BE002C05BE0040C6B30080CF5000030032006540400080CF50000B003A0029
:20148000E00F5400E08F5C00E00F5D00E08F5D0006003D006000B8006011B8000804500046
:2014A000898458000A0559008B855900E00F5400E08F5C00E00F5D00E08F5D0004003A0092
:2014C0005C0890008D0120000000E0000C003200BFB0970001027800CFA2DE0005037800FC
:2014E000860378000800BE000A01BE00090107004FB2970064407800D0DF9F007D012000AB
:201500003FB0970000027800CFA2DE0005037800860378000800BE000A01BE00F60007006F
:20152000009EBE000296BE000D00E90061FC2F008F804000008740001E0037003FB1970085
:2015400002047800CFC4DE00090578008A0578000802BE000A03BE007FA897008FB09700E8
:201560001FB19700AFB19700EE000700D0B79F00E1B79F00F2B79F0083BF9F008D06E90016
:201580000802BE000A03BE006C0107007FAA970000005200CFB09700615778005FB0970046
:2015A000EFB097007FB197008FB99700009EBE000296BE003C00BE002C01BE00F0AF9F007A
:2015C00081B79F0092B79F00A3B79F00E00F5000E08F5800E00F5900E08F59000200340007
:2015E0000D00E000D5FF3C00BFB09700E88F500010003A000C1090000038A3000D00320011
:20160000F78F560006003E0062FC2F000F0141008D00410000C3B300914F10000500320061
:201620008D06E90000C3B30063FC2F008F81410080F17E0078811600120E98006C00900027
:2016400063FC2F008F8141008D8041008CFC07001C0990005C089000800F510006003D0002
:2016600002005000000E98000C1090000040A100001698000F0037000000E0000D003D00C7
:201680000C10900074006000F00F500009003A007C089000FC009000010050008C08900023
:2016A00001005000020050004240A90001003400000E98004F0778004F06BE004F05BE008E
:2016C0004F04BE00EF02B1000000060080007800010037000000E8001004E000FDFF3A000F
:2016E00001005000000006008001EB00040037008301E80090CF1000040032000000E800F3
:20170000828F5100FAFF3A000000EB0000000600881F7800000478005001BE004000BE009B
:2017200004004000858048000601490087814900009CBE000294BE000400E1000588E10076
:201740000690E1000798E10002003100680044001008E8004F04780000000600F487470020
:20176000889FBE008A9FBE008C9FBE008E1F78000205BE000004BE00D4B79F00E5B79F00A3
:20178000F6B79F0087BF9F000000EB00C0B79F00B0B79F00A0B79F0090B79F0080B79F005F
:2017A0000D042000BFB097004FB09700000140000000E0000F003D004F08DE000000710049
:2017C000C0B79F009E00070001003D0012002000A100070001003D0012002000A600070019
:2017E000B1000700B60007000F004000C8FF0700220037004F08DE0000067100CCB79F0030
:201800008F00070001003D00120020009200070001003D001200200097000700A200070072
:201820000FB297009FB297002FB39700BFB39700A90007000000520081805A0002015B002B
:2018400083815B0080B79F0091B79F00A2B79F00B3B79F000007EB009F0007000020E100D2
:2018600001A8E10002B0E10003B8E100010031001E0020000E005600C0B79F004FB297002D
:201880000400E0000700350010002000010020006011B80008047000898470000A05710035
:2018A0008B8571008D06E900BEFF3A000400E00003003D00820007000F00400094FF07009E
:2018C0004FA897000000E00004003A000FB497009FB497002FB59700BFB5970094000700F7
:2018E0004F0778004F06BE004F05BE004F04BE004F01B10000000600881F78001800200086
:20190000881F780095FF07008F87E9004F04780000000600801FEB0090FF07008F87E9001E
:2019200000000600889FBE008A9FBE008C1F78006E00070007003D0073000700E00F5B0035
:20194000E08F5B0007003D00320007000006EB00040037003400070002003D002A00070069
:201960001C00200072000700E3FF07000203BE000002BE000C00E0000100320022000700FE
:201980000400BE000601BE004F0678004F05BE004F04BE0000000600889FBE008A9FBE00FE
:2019A0008C1F78005100070005003D0056000700E00F5B00E08F5B0006003D00040037007B
:2019C0001900070003003D006000B8006011B8001000070056000700CEFF07000203BE005B
:2019E0000002BE000C00E00001003200060007000400BE000601BE004F0678004F05BE0095
:201A00004F04BE00000006006000B8006011B8000000370004025000858258000603590020
:201A200087835900000006000006EB00E00F5200E08F5A00E00F5B00E08F5B000000060028
:201A40000180400090B79F000001EB008FB097000100E000000006000200700090B79F00DE
:201A60000180400080B79F000001EB00FFA897000100E000000006000200700080B79F0076
:201A8000018040006FAA9700CF20DE0001007000F0AF9F0004024200250007004F18DE00A0
:201AA0000002720000000600E4AF9F000804440089844C000A054D008B854D000000060012
:201AC0003FB29700CFB297005FB39700EFB3970000FE2F00000006003FB09700CFB09700B5
:201AE0005FB19700EFB19700000006000205BE000004BE00E00F5000E08F5800E00F59002D
:201B0000E08F5900000006006000B8006011B80008045000898458000A0559008B85590024
:201B20001C002000E00F5200E08F5A00000006000800BE000A01BE0000000600889FBE00DF
:201B40008A9FBE008C1F78000205BE000004BE000006EB00E00F5000E08F5800E00F5900B5
:201B6000E08F590007003D006000B8006011B80008045000898458000A0559008B85590086
:201B80001C002000E00F5200E08F5A00E00F5B00E08F5B0002003D000F0007000C00A200E8
:201BA0000800BE000A01BE00120007000203BE000002BE000C00E0000100320006000700CE
:201BC0000400BE000601BE004F0678004F05BE004F04BE00000006006000B8006011B80047
:201BE0000402500085825800060359008783590000000600889FBE008A9FBE008C9FBE00B0
:201C00000404B8000506B8008904460060854E000606B8000A054600E0854E000706B800AA
:201C20008B054600040EB800890446000A854E00E0854D00050EB8000A0546008B854E0024
:201C4000060EB8008B0546000416B8000A0546008B854E000516B8008B054600041EB800DA
:201C60008B0546000800BE000A01BE004F06BE004F05BE004F04BE00000006000002BE0003
:201C80000B003700000000000000000000000000000000000000000000000000610151004F
:201CA000E0815900E10F4100E08F4900F5FF3A0061025200E0825A00E10F4200E08F4A00F7
:201CC00003003200027D200003002000F3FF370000000600889FBE008A9FBE006044B800B6
:201CE0000AC02F00FBFF2F0017003700F0BF2100800F5500E08F5D000F0036002204240065
:201D0000880078000900780024020700E7C2BF004500DE00610060000004A2004500DD0001
:201D2000912E2000914078000154A10080C0700001007800E9E2B7000820B0000980B000C9
:201D40000A20B0000B80B000F0BF2A0021002000800F5400818F5C00E4FF36004F05BE00DA
:201D60004F04BE00000006000800FA00889FBE008A9FBE008C9FBE006044B8000205BE0074
:201D8000000678008006EB001C80FB0001F02F0001046400000474001C4090004800DD00AB
:201DA000F80FB200000474002C4090000080FB008184640080847400F90FB20088017800DF
:201DC000090178008A0078000B007800E80107007F006500F80F500004003A00EAB79F0053
:201DE000FBB79F0088BF9F0099BF9F000D00E0000A0032000D00E800F003B20007003A00B1
:201E00008FB997001FB99700EFB097007FB09700D701070010002400CA01070062054500E7
:201E2000E0854D008D06E8006306460000202000808F5600D4FF3A004F06BE004F05BE00EF
:201E40004F04BE000080FA0000000600889FBE008A9FBE00000578000204BE000B20200099
:201E60008800780009007800C50107000001BE009A4F10000E003A00C880DE001A40900004
:201E8000814F50000A003A002A409000834F500007003A006305450062044400E0844C007A
:201EA0008B05E900EEFF3A000B00780001003700100020004F05BE004F04BE00000006006E
:201EC0000E00FA00889FBE008A9FBE008C9FBE008206780080BF9F0091BF9F00E7C2BF0010
:201EE0004500DE00610060000004A2004500DD00912E2000914078000154A10080C0700068
:201F000001007800E9E2B7000FB897009FB8970064044000E0844800AF010700800F54008C
:201F2000818F5C0007003600889FBE00C1A82900811F78000D00780039FA0700200020006A
:201F4000BD0037007482570042002000030020000FB897009FB89700750207000001EB0005
:201F6000B2B79F000FB897009FB8970066054000E085480098010700800F5500818F5D00C4
:201F8000070036008A9FBE00C1A82900811F78000D00780022FA070030002000A60037009E
:201FA0007A82570022002000030020000800BE005F020700BFB097000100E800E10F50000C
:201FC00002003E000000EB009C0037000186E8006164B9000A0144008B814C0082BF9F008F
:201FE00093BF9F007C0107000FB997009FB99700800F5100818F590007003600829FBE00B9
:20200000C3A82900831F78000D00780004FA0700400020008800370030602000800F5600D4
:2020200008003600801F78008C1F780044AC2900841F78000D007800F9F907005000200006
:202040007D003700048520000801BE000A00BE0037020700C28829008C0078000085200038
:20206000F8030700800178000000E000080032008C1F78008A9FBE0080AF2900801F7800D2
:202080000D007800E6F90700600020005C0037006FB09700FFB09700E00F5000E08F5800C0
:2020A0000A003A0054DEBF0050E8B70055DEBF0051E8B70056DEBF0052E8B70032002000E4
:2020C0008300780030852000E6F907006FB19700FFB1970000C02F00F1FF2F0002004000FC
:2020E00083804800F4BF2100840F5000E08F5800450036003FB2970000602000800F5200B3
:2021000016003A00F0FF2F00710F2000800F5100818F590011003E000085200012FF07005C
:202120006FB19700FFB197000085200047FF07000000E000340032006FB09700FFB097006D
:20214000809FBE0081B22900811F78000D007800B3F907007000200037003700E3026200B1
:2021600020003A00F0FF2F00710F2000800F5100818F59001B0036004225DE008504780067
:2021800008852000140037007880570003000900385878004000B1004800B1005FB1970053
:2021A000EFB097007FB09700CFB19700F000070000002400E30007006FB09700FFB097000B
:2021C00062004000E0804800E0B79F00F1B79F00640444008904E8008A8F5400EAFF390088
:2021E00009003700841F7800829FBE0092B42900821F78000D00780089F90700800020006F
:20220000E88757000D003700F30007000FB997009FB99700800F5100818F59002FFF3900BC
:20222000829FBE0053B82900831F78000D0078007BF9070090002000E68757004F06BE00EA
:202240004F05BE004F04BE000080FA00000006007000FA00889FBE008A1F780044C7BF00A1
:2022600001CEB300014060003040B30044E7B700303A800001E02F0001006000E007B30041
:20228000303A8800F0C3B3004467B60040A7A90042C7BF000058A300FDFF3200CC62A9002D
:2022A000CC22A900CC42A900E5A2A900D062A800D042A900E9A2A900D022A9009641A900BC
:2022C0009621A9009601A900D262A800D4C2BF000080FB004300DE000000A200610060002E
:2022E000C0F5880026010700A1F82F008F8040006A804000C5000700E0F82F008F00400090
:202300000080E9000F004000B6000700A2F82F000F014100E800410066004100B6000700A1
:2023200054EEEF0044E5200002002100030020002F8897001000BE007D010700B81EE20084
:2023400004003200D022A80010C0B30054EEB7000A00370040E5200011C0B30090CF1000B8
:2023600002003200D062A90089000700420620008000EB0050E520003AF907006000B80044
:202380007F000700A0F28800B1F28800B81EE20010003A004FFE07004306200052E520005C
:2023A0000F8897001000BE00C5FE07000004E0000500320054EEB700D042A8001000200059
:2023C000C0F588000100370054EEB700B81EE2002C0032003FFE070052E5200040E5200099
:2023E00011C0B30090CF10000200320060F92F000F014000430620006F8097001000BE0021
:20240000AFFE0700004578000004E0001D003200D042A8006044B8002204240088007800B8
:20242000090078005D00070054DEBF0050E8B70055DEBF0051E8B70056DEBF0052E8B70011
:20244000320020008000EB003085200005F90700D25F2000F10F20006085200001F907006E
:202460000801BE00008520003FFE070040E5200011C0B30090CF100002003A000A007800B6
:2024800054EEB7000004EB00050037004240DD00010040001000BE00DD0107000804E800D1
:2024A000AF8897005F819700820F5400F7FF3900040021000500200042E520001100BE0063
:2024C000D8010700803E200001002000EBFD0700D062A9002E0007004F0578004F04BE0041
:2024E0000080FA0000000600889FBE008A9FBE00000578000204BE000B2020008800780004
:20250000090078001E000700004D78004881DE001245980021459800630545006204440065
:20252000E0844C008B05E900F4FF3A004F05BE004F04BE000000060090018800810078000A
:2025400000000600003B880050052000303B8800A00A2000303B880061E7A800000000009D
:202560000000000061E7AF00FEFF370000000600900188008308BB008288BB000000060000
:20258000900188001100BA009180BA00000006000220040000000000000006003200F80030
:2025A000023B8800900188008108BB0050052000303B8800A00A2000303B880061E7A800E4
:2025C000000000000000000061E7AF00FEFF37003200F9000000060070F5800081F58000C4
:2025E00000000600C2E621000208780060F58000800878000000060082E5210002087800A5
:2026000050F58000800878000000060022E821000208780000F480008008780000000600C8
:20262000CBC2A9000004E0000100320010C0B300E1406000C608DD00D7C2BF000064A10041
:2026400001407000D7E2B700CBC2A80000000600CBC2A900CBC2A80000000000D5C2BF005D
:202660000080FB004700DE0000000600804178000001EB00CBC2A9000380FB000200DD00FC
:2026800001C8B300014060000100320010C0B300C600DD00D7C2BF000064A10001407000B6
:2026A000D7E2B700CBC2A8000201E800E80F5100F0FF3A0000000600C4A2A90060C0B30031
:2026C000EAFF0700C4A2A80000000600889FBE000004BE004008DE00E4FF07004849DD00D1
:2026E0004840DE0000007100C848DE00DFFF070008407800DDFF07004F04BE000000060076
:202700000041EB0071002000CBC2A900CBC2A80000000000D5C2BF000080FB004700DE009B
:202720000100DD00004171008100E900E18F4000F5FF3A000280FB0000000600889FBE0059
:202740008A1F78000004BE0002057800C4A2A900F0C9B300C5FF0700E9FF0700004C78001E
:20276000E7FF0700804C7800E5FF0700004D7800C4A2A8004F0578004F04BE000000060087
:202780002A00FA002DC3A8006DC3A8002122A9002102A90080FF2F005A21B6005E21B600D9
:2027A0006280A90062A0A9006A80A9006AA0A900C0A2A900D3E2A800D3C2A900C7C2A900C5
:2027C000C4A2A800CBC2A8000000000062FD2F000F0141008200E80020EB2100D7FF070064
:2027E000B2DEBF00FF4F500003003200F14F40004D003A002C003700FFD0970060C4B30010
:2028000080CF5000040032000040E80080CF500045003A0012003700F0FF2F0070F5880049
:20282000F001200080F58800F480570040C3290009000900B01878004101B1004001B1005C
:20284000C0E6210009000900311878004101B10080FD2F008F00400000C229002A00370024
:20286000F0FF2F0070F58800F003200080F5880080FD2F008F004000C0C029000900090007
:20288000B01878004101B1004001B100C0E6210009000900311878004101B100F4805700BB
:2028A00080BF290018003700FFD0970000C4B30080CF50001C003A006FD09700F54F500025
:2028C00019003A00F0FF2F0070F58800F001200080F58800F480570040BE29000900090088
:2028E000B01878004101B1004001B100C0E6210009000900311878004101B10080FD2F007A
:202900008F00400000BD290009000900B01878004101B1004001B10080E521000900090033
:20292000311878004101B1000080FA0000000600889FBE008A9FBE008C1F78000004BE00B2
:202940000205BE0004067800C4A2A90030C0B30046FF07000800BE005CFF07006044B800AE
:202960000400370066FF070000767C0061044400E0844C008A0F54008B8F5C00F9FF3900D1
:20298000C4A2A8004F0678004F05BE004F04BE0000000600C4A2A90050C0B30033FF070028
:2029A00057FF0700E1006000FDFF3A0020EB2100F2C1B300904F11000200320001407800D4
:2029C000020037004EFF07000042B200C4A2A8000080FB0000000600889FBE008A9FBE001B
:2029E0008C1F78000004BE00020678000405BE0031FF0700C4A2A90020C0B3001BFF0700B1
:202A00000800BE0031FF07006044B800040037006C407C0015FF070061044400E0844C0086
:202A20008A0F54008B8F5C00F9FF3900C4A2A800D8FF07000080FB004F0678004F05BE00BC
:202A40004F04BE0000000600881F78000044780019FF0700C4A2A90010C0B30003FF0700CA
:202A60000840780001FF0700C4A2A800C9FF07004F04780000000600B2DEBF00FF4F5000F4
:202A800002003A00F0C7B300EFFF3700F14F400002003A0080C1B300EBFF070000000600C4
:202AA000889FBE000004BE00B2DEBF00FF4F500008003A0000FF0700C4A2A90060C3B30055
:202AC000EAFE07000800BE0000FF0700C4A2A80003003700F14F400001003A00E6FF07004C
:202AE0004F04BE0000000600B2DEBF00FF4F500002003A000040EB00D3FF3700F14F4000E2
:202B000002003A000040EB00CFFF070000000600881F7800F4FF0700E7FE0700C4A2A9005F
:202B200000C6B300D1FE0700C4A2A80099FF070000447800D0FF07000884FB000800780000
:202B40004F04780000000600889FBE000004BE00B2DEBF00FF4F500008003A00D6FE0700F3
:202B6000C4A2A90090C3B300C0FE07000800BE00D6FE0700C4A2A80003003700F14F400012
:202B800001003A00D8FF07004F04BE0000000600881F78008A9FBE00004478000205BE007E
:202BA0000200BE00E8FF0700C3FE0700C4A2A90008407800ADFE07000A00BE00C3FE07008E
:202BC000C4A2A80073FF0700004478000A00BE00B3FF07000884FB00080078004F05BE0018
:202BE0004F047800000006000001BE0080CDB300E7FF07000080FB00000006000001BE0018
:202C000020C5B300E2FF07000080FB00000006000001BE0000C2B300DDFF07000080FB0021
:202C200000000600F8874700889FBE008A9FBE008C9FBE008E1F7800C0B79F00D1B79F00B1
:202C4000E2B79F00F4B79F0085BF9F00BEFF07005FB097006101B800C011DD0002002000BB
:202C6000A2B79F00B3B79F006011B80074F5800085F58000E4AF9F00F5AF9F002000200092
:202C80004FB39700DFB39700840F5300858F5B004E003100050037002FB09700BFB09700E6
:202CA0007FFF070010002000480037004FB69700DFB6970082B79F0093B79F0038003700E8
:202CC000EFB397000FB09700008743000C00BE000010B0000180B00002F02F00000161005D
:202CE000020078000C0550008D8558007FB197008FB997000FB297009FB297000400510054
:202D0000858059008A0F50008B8F5800010031000005BE006168B800C004DD0008002000BB
:202D20002FB39700BFB39700860F5400878F5C00060032000600BE0059FF07000800BE0095
:202D400081FF0700A8B79F00B9B79F000A02BE000E0178000C00BE001FFF07000000E000BF
:202D6000CDFF3A000FB097009FB097000000450081804D0080B79F0091B79F004FB197002A
:202D8000DFB1970002064000838648006FAA9700FFAA9700840F5600858F5E0007003100F0
:202DA0000FB397009FB397007FB097008FB89700800F5300818F5B00C1FF39002FB0970071
:202DC000BFB0970036FF07000000EB004F0778004F06BE004F05BE004F04BE008F01B10081
:202DE000000006000400FA00881F78008080FB0000F48000808F50000F003100420CDD0077
:202E000020E82100000444001800BE0080FF0700010022000000EB00D9FD0700D0BF9F00CC
:202E2000E1BF9F004400200005002000668157001800BE007BFF07004F0478000080FA00F0
:202E4000000006000400FA00889FBE008A9FBE008C1F7800000678000205BE0081447800FF
:202E60008180FB000081EB0000F48000808F50001C003100C208DD0020E821000084400036
:202E80006E82570042002000030020001800BE00A7FE0700010022000000EB00B8FD07001A
:202EA0001FB99700AFB99700800F5100818F59000400320009407800CAFF0700E2FF2F0084
:202EC00008003700420020000300200038004100A88049000C0278000A01BE0094FE07005C
:202EE0000001EB00020078004F0678004F05BE004F04BE000080FA0000000600889FBE0017
:202F00008A9FBE00800478000205BE000184FB0000F48000800F54000B003100014078003D
:202F2000B0FF07004240DD0021E82100010040001001BE0064004100E08049000A02BE002A
:202F40000901780037FF07004F05BE004F04BE00000006000080FD00000006008000FD0089
:202F60000080FD000180FD00000006008001FD000101FD000080FD000180FD000280FD0059
:202F80000380FD00000006008001FD000101FD000080FD000180FD000280FD000380FD0034
:202FA000000006008001FD000101FD000080FD000180FD000280FD000380FD00000006008E
:202FC000040020000410E700000006000201E900028009003118780000000600040020006A
:202FE0000410E700000006000201E900028009003158780000000600040020000410E70033
:20300000000006000201E9000280080001000000B181FB0003187800000006000400200049
:203020000410E700000006000201E90002800800020000003182FB000402420063187A002C
:2030400000000600F4FF2F006008E1000B0032008100E900018008000700000084027800CA
:20306000C82ADE00B081FB004822DD00030272008582420062837A0006026A000100080073
:203080000500000084027800C82ADE004822DD008582420062837A0006026A000400780080
:2030A000000006000003EB008003EB004109DE00090032000201E9000280080005000000D0
:2030C000B082FB003082FB004822DD0085027200068342000780B000E181600003003200DD
:2030E000B082FB00068342000780B0000683430060004B0000000600809FBE00EC80570084
:2031000031007800A0F5880011007800B6FEB7004F00BE00000006000000000021100000B1
:20312000422000006330000084400000A5500000C6600000E7700000088100002991000021
:203140004AA100006BB100008CC10000ADD10000CEE10000EFF100003112000010020000B9
:203160007332000052220000B552000094420000F7720000D6620000399300001883000051
:203180007BB300005AA30000BDD300009CC30000FFF30000DEE30000622400004334000065
:2031A0002004000001140000E6640000C7740000A4440000855400006AA500004BB5000081
:2031C0002885000009950000EEE50000CFF50000ACC500008DD50000533600007226000019
:2031E0001116000030060000D7760000F666000095560000B44600005BB700007AA70000B1
:203200001997000038870000DFF70000FEE700009DD70000BCC70000C4480000E558000044
:2032200086680000A778000040080000611800000228000023380000CCC90000EDD90000E0
:203240008EE90000AFF9000048890000699900000AA900002BB90000F55A0000D44A000078
:20326000B77A0000966A0000711A0000500A0000333A0000122A0000FDDB0000DCCB000010
:20328000BFFB00009EEB0000799B0000588B00003BBB00001AAB0000A66C0000877C000024
:2032A000E44C0000C55C0000222C0000033C0000600C0000411C0000AEED00008FFD000040
:2032C000ECCD0000CDDD00002AAD00000BBD0000688D0000499D0000977E0000B66E0000D8
:2032E000D55E0000F44E0000133E0000322E0000511E0000700E00009FFF0000BEEF000070
:20330000DDDF0000FCCF00001BBF00003AAF0000599F0000788F000088910000A981000021
:20332000CAB10000EBA100000CD100002DC100004EF100006FE1000080100000A1000000FB
:20334000C2300000E320000004500000254000004670000067600000B983000098930000DB
:20336000FBA30000DAB300003DC300001CD300007FE300005EF30000B1020000901200002B
:20338000F3220000D232000035420000145200007762000056720000EAB50000CBA5000087
:2033A000A8950000898500006EF500004FE500002CD500000DC50000E2340000C32400005B
:2033C000A01400008104000066740000476400002454000005440000DBA70000FAB700003B
:2033E00099870000B89700005FE700007EF700001DC700003CD70000D3260000F23600008B
:2034000091060000B0160000576600007676000015460000345600004CD900006DC9000066
:203420000EF900002FE90000C8990000E98900008AB90000ABA900004458000065480000BA
:203440000678000027680000C0180000E108000082380000A32800007DCB00005CDB00009A
:203460003FEB00001EFB0000F98B0000D89B0000BBAB00009ABB0000754A0000545A0000EA
:20348000376A0000167A0000F10A0000D01A0000B32A0000923A00002EFD00000FED000046
:2034A0006CDD00004DCD0000AABD00008BAD0000E89D0000C98D0000267C0000076C00001A
:2034C000645C0000454C0000A23C0000832C0000E01C0000C10C00001FEF00003EFF0000FA
:2034E0005DCF00007CDF00009BAF0000BABF0000D98F0000F89F0000176E0000367E00004A
:20350000554E0000745E0000932E0000B23E0000D10E0000F01E000030780000253000009B
:20352000386C000058200000697300002067000072650000617400006572000020740000F5
:20354000686100006E2000006D610000786900006D7500006D200000657800007465000040
:20356000726E0000616C0000206600006C6100007368000020610000646400007265000050
:20358000737300002E000000446100007461000020730000697A0000652C00002025000051
:2035A000692C000020690000732000006C6100007267000065720000207400006861000080
:2035C0006E200000746500006D7000006F72000061720000792000006275000066660000B7
:2035E000657200002C200000257500002E00000043520000432000004D690000736D000052
:2036000061740000636800002E2000004461000074610000206900006E640000657800000A
:203620002030000078250000303800006C5800002E20000044610000746100002073000016
:20364000697A000065200000256900002E00000052650000616400002042000061630000A4
:203660006B20000046610000696C00002E200000416400006472000065730000732000000F
:203680003078000025300000386C0000582E0000004900006E760000616C0000696400003C
:2036A00020730000697A0000652F000061640000647200006573000073200000636F000028
:2036C0006D620000696E000061740000696F00006E2E0000204100006464000072650000FB
:2036E000737300002030000078250000303800006C5800002E200000536900007A650000E2
:2037000020250000692E0000004E00006578000074200000496E00006465000078200000F6
:20372000496E0000766100006C690000643A0000202500003038000058000000FFFF000085
:20374000000000000000000001000000FF0000000000000000010000000000000102000065
:203760008002000001800000402000001008000004040000081000002040000080AB000023
:20378000B99F0000010500003C390000360400000602000060D8000052200000030B00005C
:2037A0000000000016000000000000001700000000000000180000000000000019000000AB
:2037C000000000001A000000000000001B000000000000001C000000000000001D0000007B
:2037E000000000001E000000000000001F000000000000003600000000000000370000001F
:2038000000000000380000000000000039000000000000003A000000000000003B000000C2
:20382000000000003C000000000000003D000000000000003E000000000000003F00000092
:2038400000000000160000000000000017000000000000001800000000000000190000000A
:20386000000000001A000000000000001B000000000000001C000000000000001D000000DA
:20388000000000001E000000000000001F000000B81E000002000000020000000000000011
:2038A000500800000816000000000000581E00005600000002000000FFFFFF00FFFFFF00CA
:2038C000FFFFFF00FFFFFF00FFFFFF00FFFFFF00FFFFFF00FFFFFF00FFFFFF00FFFFFF0000
:2038E000FFFFFF00FFFFFF00FFFFFF00FF0A00000000000000001000000000002000000098
:20390000003000000000400000000000500000000060000000007000000000008000000097
:20392000009000000005000005000000AE1E00000600000000000000B41E00000400000045
:2039400000000000DC1E00001200000002000000010002000004000008001000000000003A
:20396000202B2D0023300000EE1E00000800000002000000686A6C00747A4C0000000000EE
:20398000BA1E0000220000000200000030313200333435003637380039616200636465002F
:2039A0006600300031323300343536003738390041424300444546000000000000000000FF
:2039C0006FEF210000FF270000018800000000000A00070011000700000020000000E00090
:2039E00002003200000002000000000028110200000000000040DA000000FE004440A90011
:203A0000C03B20000000E0000300320000002000A00188004440A8000000060080C4210096
:203A2000010020001500370062004000E0804800910188009001BA0062004000E080480020
:203A4000910188009002BA0062004000E08048000002EB006028E10004003A000059EB00DE
:203A60008301E900FDFF3E00040037006128E100010032000082EB00050007009101880034
:203A80001001BA000200E000E7FF3A0000000500910188008002780062004000E0804800F6
:203AA0003559BA008301E900080032002559BA008301E900050032000400E000F4FF320032
:1C3AC00015D9BA008301E900F1FF3A0000000600FFFF0000FFFF00000000FE00AB
:20400000E9D63000745A040001000000DCCB040000000000DAD1040000000000429C0400A2
:204020000000000054A0040000000000FE74040000000000667B040000000000127904009E
:20404000000000006E770400000000007E77040000000000DA93040000000000C0940400B5
:2040600000000000D08E040000000000328D04000000000072BB0400000000004EBB0400DD
:20408000000000002ABB040000000000FEB90400000000003C7B04000000000068750400E0
:2040A00000000000427504000000000062BD040000000000C476040000000000E43E0400BE
:2040C0000000000016D90400000000006CD904000000000058B4040000000000B2D104000D
:2040E00000000000C6D104000000000056D8040000000000902004000000000038220400E1
:20410000000000008001EB0002003700817178008301E800828F5100FCFF3A000000060087
:20412000881F7800020478007B000700080040004F047800000006000000FA00881F78002E
:20414000000478003FB99700EA8157008000780000092200EB000700800078000000E000A5
:20416000020035000040EB0000F47800010078004F0478000080FA000000060080007800B5
:20418000010037000000E8001004E000FDFF3A000100500000000600889FBE00E304400072
:2041A0000900A100808F54004A003600E38F540001003E004900200062D281000200E0006D
:2041C00002003200820078000C003700E1A4230003003700908F5400230036008080E800D8
:2041E000110078000000E000FAFF3A000F003700908F54001C0036008080E80011007800A7
:204200000000E000FAFF3A0012017800E1A4230003003700908F5400130036008080E8007A
:2042200011007800820F5000FAFF3A0058D28100890F540001003100090478000800780013
:20424000A90007000000E00004003A00890F5400200032000804D100F5FF370008187800B2
:204260003C000700D4FF3700110178009201780064805100890F5000030031001200900069
:20428000800878000700370009004100800878009201900013009800110078001288140091
:2042A00009097800910078000100E00005003200110090000000E000020032000180E80035
:2042C000010037000000EB0060D289000280E800010037000000EB004F04BE00000006005C
:2042E0008001EB0008003700E342780063C278008301E80084CF5200030032000080EB0028
:204300000400390010000500828F5100F6FF3A000000EB00000006008001EB000200370024
:2043200061F079008301E800828F5100FCFF3A00000006008001780000017800314078004F
:20434000005978000004E000FCFF3A0003007800000006000000E000310032008080E900C6
:2043600091027800E38F52002D0036000508A3002B003A0072D281000200E000020032001B
:20438000828F5000040031000208780071D289001600370003017800920190000300E0006A
:2043A00002003200818F5100FAFF39001202780004004100808F500019003900810F5000D4
:2043C00003003A000509420082007800070037000300E0000300320005804000808F5100DB
:2043E0000F0039009300980011019800110190000200E0000A00320011804000820F50002E
:2044000007003A00C0A423000008EB00110090001101780090084100100090009000980015
:204420000000060000037800800178000002EB00010037008059780084025100820F5200D2
:204440000900320064C078000402E8000004E000F8FF3A00830078008058EB0005804100FE
:20446000808F5000FCFF3A000600780000000600881F780002047800A7FF07000800400092
:204480004F04780000000600881F7800000478008201780001017800880078008023220076
:2044A00018000700800078000000E000020035000040EB0000F47800010078004F047800F3
:2044C00000000600040037000204E00001003A00000005000000E80010417800814F5100A3
:2044E000F9FF3A00000006000000E0000300340041080700E10F400001003A000000EB00C7
:20450000000006006200FA00889FBE008A9FBE000004BE00020578008300780060F92F00A9
:204520000F004000B000070088979F0099979F000000EB00A09F9F009A4578000B80FB0042
:204540000000EA00CF04DE0050C2B30080CF55000200320009047800010037000904E90070
:204560000800E0000B0034001F909700080178008A0078008F9197000300010090979F00CA
:204580000000E000930032002F98970000004400A09F9F000905450050C2B30080CF55003A
:2045A000040032000B04E000E3FF3A002F989700890037000000EB00809F9F00F0979F00CD
:2045C000E0979F00D0979F00C0979F00B0979F00C09F9F0009003700809F23000080500093
:2045E00000004000C19E2300E10078004F98970001007000C09F9F000A05E8001A447800E6
:204600008800FB00809F2300AEFF0700800078000000E000F0FF3A00A0C2B300804F5400E8
:204620000E003A00BF8897000180E900B08F9F0010007800B09F9F000000E00005003D0074
:204640000000EA00B09F9F004F9897000020A000C09F9F000A05E80010003700B19F9F0019
:2046600009003700BF989700F0FF2700808F5000040032006A08B9000000410003004000B2
:20468000B09F9F000A05E8001A01FB0003FD2F0003004100E90F5000F2FF3600E0C2B300E8
:2046A0009A4F1000040032000080EB00909F9F008A0478001C0037008A04E800A0C2B300AE
:2046C000994F100007003A00BF8897000180E900B08F9F0010007800909F9F008A84E8002F
:2046E000110037000000EB00909F9F00090037009F989700F0FF2700808F50000400320000
:204700006A08B9000000410003004000909F9F008904E8001901FB0003FD2F00030041001F
:20472000E90F5000F2FF3600194478008800FB0060A3230063FF07000000E00002003A0007
:2047400000447800010037008904E800A87F9F0080C6B300804F540004003A00994F1400D4
:204760000A003A006640500006003700C0C6B300804F540005003A00994F140003003A00EE
:2047800065404000A07F9F008904E8000905E800C8FB2F000F04440060F92F000F004000EB
:2047A0008085E8008801780019417800800078000B007800DB0007000000E00005003A00BD
:2047C000880078000B0078000C0007000000E00059FF3D000080EB004F05BE004F04BE0040
:2047E0000080FA00000006000200FA00F1BF9F00010878000080FA00000006000400FA00EF
:20480000889FBE008A9FBE008C1F7800000478000106780070089000F800900001005000CD
:2048200088089000010050009808900001005000A808900001005000B80890000100500054
:20484000C8089000810550000002220090BF9F0000032300A0BF9F00081090000028A30079
:2048600018003A000B00E000160034008B04780009057800E28F5400020036002A002000DD
:20488000020037000900E0000B00340058009000C80190000A017800EE805700030001002A
:2048A000500498000000E000960032006808900000004500600C98008A8454004240A9008E
:2048C000EBFF3C00780190000200E0000B00340058009000C80190008C007800030001003F
:2048E000500498000000E0008600320068089000F800900001004000600C9800880C900043
:204900000900E0001500340009057800E28F5400020036002A002000020037000900E00076
:204920000B00340058009000C80190000A017800EC80570003000100500498000000E000E1
:20494000700032006808900000004500600C98008A8454004240A900EBFF3C001809900008
:204960000200E0000B003400E800900058009000C801900003000100500498000000E0008D
:2049800060003200680890009808900001004000600C9800A80C90000900E000150034009A
:2049A00009057800E28F5400020036002A002000020037000900E0000B00340058009000E1
:2049C000C80190000A017800EC80570003000100500498000000E0004A00320068089000EC
:2049E00000004500600C98008A8454004240A900EBFF3C00380990000200E0000D003400C7
:204A0000E8009000180890008080400058009000C801900003000100500498000000E0001D
:204A20003800320068089000B808900001004000600C9800C80C90000900E00015003400E1
:204A400009057800E28F5400020036002A002000020037000900E0000B0034005800900040
:204A6000C80190000A017800EC80570003000100500498000000E000220032006808900073
:204A800000004500600C98008A8454004240A900EBFF3C00081090000028A3001B0032005A
:204AA0000B00E000190034008B04780009057800E28F5400020036002A00200002003700B1
:204AC0000900E0000B00340058009000C80190000A017800EE805700030001005004980035
:204AE0000000E000070032006808900000004500600C98008A8454004240A9000300340090
:204B0000EAFF37000080EB00010037000000EB004F0678004F05BE004F04BE000080FA007D
:204B200000000600889FBE008A1F78000004780001027800824478000305780070C6B300CB
:204B4000804F510021003C0000C0E900804F5100DE003D0072405000804F51004B01320054
:204B60000D003C006C405000804F51005E013C0000C0E900804F5100D4003D0050C2B30096
:204B8000804F5100550132007C404000804F510055013A00CD00370010C6B300804F510014
:204BA000CA00320004003C0069405000804F51004D013A007200370030C6B300804F5100A6
:204BC000180032000040E8000900370000C7B300804F51001E01320008003C0000C0E9004B
:204BE000804F5100E400320065003C006540500080CF54003C013A000F00370050C7B300BF
:204C0000804F51005E00320063404000804F51005B00320065405000804F510032013A00D2
:204C20001A0137009180E900010A7800780090009171780032013700A8609000C0C6B300E8
:204C400080CF50000A003A009400780064805000000A78001000BE004F89DE00CF91DE00ED
:204C60000002BE0002037800820378001300370010C7B30080CF500003003200A0C6B30039
:204C800080CF500006003A009400780068805000000A78003002BE002003BE000700370060
:204CA0001480E900000A78001000780000027800CFA2DE000503780086037800049CBE00C5
:204CC0000694BE00A860900080C6B30080CF50000E00320020C6B30080CF500005003A0095
:204CE0000400FB00CF80DE0001017800820178000A00370040C7B30080CF50000300320044
:204D00006640400080CF500006003A0004007800CF80DE000101780082017800009CBE0056
:204D20000294BE003800BE002801BE00E00F5000E08F5800E00F5900E08F590003003D00EC
:204D400078009000D1C2B3000A003700081090000018A3000300320078009000B1C2B300FE
:204D6000040037000008A300530032007800900001C2B300017578000000E8004D003700F0
:204D8000A8609000C0C6B30080CF500006003A009400780064805000000A78001002BE00D1
:204DA0006033B8001300370010C7B30080CF500003003200A0C6B30080CF500006003A0008
:204DC0009400780068805000000A78003002BE002003BE00070037001480E900000A7800FF
:204DE0001000780000027800050020000600200007002000049CBE000694BE00A8609000F1
:204E000080C6B30080CF50000E00320020C6B30080CF500005003A000480FB0001002000A3
:204E200002002000030020000A00370040C7B30080CF5000030032006640400080CF5000D9
:204E400006003A0004007800010020000200200003002000009CBE000294BE0008109000DA
:204E60000038A300140032003800BE002801BE00E00F5000E08F5800E00F5900E08F59001E
:204E80000D00320080C7B30080CF54000300320080C5B30080CF540007003A00780090001D
:204EA00001C3B300017578008000E80009F578000080E800700498007800900000004500EE
:204EC00060049800894078006D003700A8609000C0C4B30080CF500006003A009400780037
:204EE00068805000000A78005001BE004000BE00050037009400780064805000000A7800ED
:204F00001000BE0002080700009CBE000294BE00380090000000E00003003D007800900014
:204F2000D1C2B3000A003700081090000018A3000300320078009000B1C2B30004003700E9
:204F40000008A300050032007800900001C2B300017578000000E800700498007800900007
:204F6000000045006004980089407800080078002B01070064003700A8609000C0C6B30090
:204F800080CF5000250032000A003C006440500080CF50002800320000C0E80080CF5000A1
:204FA000140032006840500080CF500022003A000A00370040C7B30080CF50001E003200CE
:204FC0006640400080CF50001B0032006940500080CF500018003A00060037001480E9005B
:204FE000000A780010007800485C900008487800450037001480E900000A780010027800A6
:2050000068089000CF80DE000101780082017800009ABE000292BE003B0037001480E90055
:20502000000A78001001780068089000CF80DE000089BE00340037001480E900000A780087
:2050400010007800680C9000080878002E0037001180E9008008780010007800CF80DE00A8
:205060000101780082017800009CBE000294BE0078009000000045006004980081C7B300C9
:2050800008007800240007001F0037001480E900000A78001000780060049800580990009B
:2050A0000200E00002003D0034FC0700090037008000EB00D0000700800078000000E0003E
:2050C0000300320068009000008050000100370058089000100C98000B00370078009000AD
:2050E000027578000600370078009000800045000904E00001003A0059C2B3008948780078
:205100000000E800700498000000EB004F0578004F04BE0000000600EF02B000889FBE0047
:205120008A9FBE008C9FBE008E1F78000006780010972300C0B79F0080C5B30080CF500085
:205140000800320002962300C2B79F007740400080CF500003003A0083002000B3B79F00C3
:205160000A00370080C7B30080CF500005003200A4002000B4B79F0080C5B30080CF5000B9
:2051800002003A0000012000B0B79F003C04BE002C05BE0040C6B30080CF50000300320032
:2051A0006540400080CF50000B003A00E00F5400E08F5C00E00F5D00E08F5D0006003D00BD
:2051C0006000B8006011B80008045000898458000A0559008B855900E00F5400E08F5C00EE
:2051E000E00F5D00E08F5D0004003A005C0890008D0120000000E0000C003200BFB0970093
:2052000001027800CFA2DE0005037800860378000800BE000A01BE00600607004FB29700AF
:2052200064407800D0DF9F007D0120003FB0970000027800CFA2DE00050378008603780096
:205240000800BE000A01BE004D060700009EBE000296BE000D00E90061FC2F008F804000E2
:20526000008740001E0037003FB1970002047800CFC4DE00090578008A0578000802BE0047
:205280000A03BE007FA897008FB097001FB19700AFB1970045060700D0B79F00E1B79F00A2
:2052A000F2B79F0083BF9F008D06E9000802BE000A03BE00350707007FAA97000000520061
:2052C000CFB09700615778005FB09700EFB097007FB197008FB99700009EBE000296BE0054
:2052E0003C00BE002C01BE00F0AF9F0081B79F0092B79F00A3B79F00E00F5000E08F5800CD
:20530000E00F5900E08F5900020034000D00E000D5FF3C00BFB09700E88F500010003A0033
:205320000C1090000038A3000D003200F78F560006003E0062FC2F000F0141008D004100DB
:2053400000C3B300914F1000050032008D06E90000C3B30063FC2F008F81410080F17E00F0
:2053600078811600120E98006C00900063FC2F008F8141008D804100E7FB07001C0990009F
:205380005C089000800F510006003D0002005000000E98000C1090000040A10000169800C3
:2053A0000F0037000000E0000D003D000C10900074006000F00F500009003A007C08900057
:2053C000FC009000010050008C08900001005000020050004240A90001003400000E980023
:2053E0004F0778004F06BE004F05BE004F04BE00EF02B100000006008001EB00040037005A
:205400008301E80090CF1000040032000000E800828F5100FAFF3A000000EB00000006000D
:205420008F04B000889FBE008A9FBE008C9FBE008E1F7800F0B79F0081F79F005001BE00E3
:205440004000BE00F0979F00819F9F00929F9F00A39F9F0010C6B3000FF19700804F510078
:205460001600320010C4B300804F510013003200FFB19700530890000000E00003003D00A6
:2054800060002000D00998000C0037000000E0000A003A0070C6B3000FF29700804F520012
:2054A0000300320070C4B300804F520003003A0010002000FFB29700D00A9800FFB0970042
:2054C000C0FA2F000F004000FE01070080017800E20F500015003A0030002000FFB097006F
:2054E0009008980010C6B3000FF19700804F51000A00320064404000804F510007003200C3
:205500000040E800804F510004003200018C23000040E800804F510001003A00418C2300EA
:20552000FFB1970063009000160037000000E00018003400300020007FB29700100A9800EE
:2055400010C6B3008FF2970080CF52000A0032006440400080CF5200070032000040E800E7
:2055600080CF520004003200818C23000040E80080CF520001003A00C18C23007FB19700E9
:2055800062009000315878003158780011487800C601370014C6B3008FF2970084CF5200FE
:2055A0000300320010C4B30080CF520013003A007FB09700600190008200780000C3B3001A
:2055C00080587800FFB29700E102980080C7B3008FF2970084CF52000100320080C5B300D6
:2055E000804878000280E800FFB09700E0009800710090000080E800F00098000300E0006F
:2056000005003A00E3979F0064FB2F000F01420003077800A0013700058D2300E5B79F0008
:2056200010C6B3008FF0970080CF50000500320010C4B30080CF5000A7003A00128E23002B
:20564000E2B79F00FFB19700530890001E0220000000E000010035000007E8000E02E800A3
:20566000D4B79F006022B8006033B8007F9097008F9897001F999700AF999700710607006B
:20568000FFB097003102BE002103BE000000E00004003D000400BE000601BE0003F0A200B4
:2056A000020037000400BE000601BE00F0979F00819F9F00929F9F00A39F9F006F919700FD
:2056C00064015100E2979F00C3FA2F008F8141006A8041000048EB006B824100C4B79F0019
:2056E00031003700C201200003002000E5FA2F000F8042009F0107007F9497008F9C97004A
:205700001F9D9700AF9D97000800BE000A01BE00510607000006BE005FB197006701510042
:20572000D2B79F004240A9000A003400760607000002BE000203BE000800BE000A01BE0043
:2057400074060700F0979F00819F9F00929F9F00A39F9F00CFB19700678041007100200062
:20576000050037006F6066004C6ADD004466DE000C067200C4EEDE00E00F5600E08F5E0077
:20578000050034008100E900E18F4000F5FF3A00010037000060EB008100E900FDFF3B0064
:2057A00067004000C0B79F00DFB297000500E000090034006022B8006033B8007F909700B7
:2057C0008F9897001F999700AF999700530607000000E000C3FF3C0060FB2F008F00400046
:2057E0004FB19700010051000000E9008E0F500001003D00000778000E00E00003003D00FF
:2058000073FB2F000F8141002C003700800F570005003D000E80400010409000F3C0B3007B
:20582000E74F500001003C008041EB00C4FA2F000F0242000E0042006A0040008E007800B9
:20584000010037000000E9008100E90010417800834F5100FBFF32000107E800EFCF5100A6
:2058600001003A000248E8000100E0000300350075FB2F000F814200060037000E07E800F7
:205880006F90970064004000E0979F0061FB2F000F8140008E0041008E017800030037004D
:2058A0001100FB006FB29700E44878008301E9008100E9000300E000F9FF3D00FFB2970049
:2058C000550890000000E000F3003D000E00E900D00A9800F00037007F9497008F9C9700CF
:2058E0001F9D9700AF9D97006022B8006033B8000800BE000A01BE00D20507000000E000A0
:2059000005003D000BF0A200F8979F00899F9F009A9F9F00AB9F9F006F909700725927006A
:205920000280B900026A28001300200057030700E4005000E1979F0015003B00E3801000F6
:20594000C0FF2F00008460000800EA00E0979F007F9097008F9897001F999700AF999700DB
:2059600089872300070037000808A300030032003902BE002903BE00ED0507000884D10095
:20598000E88444000800E000F7FF3C001B0037000100E0001D003400C0FF2F0000806000EB
:2059A000E0979F00000478006000B8000200200003FF230089872300070037000808A300D2
:2059C000030032003902BE002903BE00D80507000884D100E88444000800E000F7FF3C00A4
:2059E0000002BE000203BE007F9097008F9897001F999700AF99970042060700F0979F001D
:205A0000819F9F00929F9F00A39F9F00FFB097005109900060C6B3008FF1970080CF510056
:205A2000040032006100200060C4B30080CF510002003A006F929700EA00420001074100EF
:205A4000F30F5700010034003E01200000C3B300E0779F0075FB2F008F824200B5B79F00F0
:205A6000330037000800BE000A01BE007A0507000006BE00680757004240A9000E003400B0
:205A8000A10507000002BE000203BE000800BE000A01BE009F0507006022B80046782D0077
:205AA00077192400A2050700F0979F00819F9F00929F9F00A39F9F003FB0970068044000BC
:205AC000890020000D003700A4002000050020000C01BE00E0FD2F000F0040001E010700A4
:205AE0007FA897008FB097001FB19700AFB1970004C3B300046441000006BE00E00F560088
:205B0000E08F5E00060034008904E900E18F4400EDFF3A000200370000C3B30000647800A3
:205B20008904E900FCFF3B0068044400B8B79F000E00E0000B0034007F9497008F9C970062
:205B40001F9D9700AF9D97006022B8006033B8000800BE000A01BE00700507000000E0009F
:205B6000C0FF3C00C5FA2F008F8242006A804200BFB09700008050008001E9006F919700E6
:205B8000E70041006B814200010037000201E80000C3B300924F1000FCFF320074FB2F005A
:205BA0000F00420080804000828050000080410002025000E1979F00FFB29700D509900020
:205BC00060C6B3008FF2970080CF52000300320060C4B30080CF520002003A008100E800E1
:205BE0000A00370050C6B3008FF0970080CF5000050032008000EB0050C4B3008FF2970065
:205C000080CF520001003A0011002000018741008E0F520001003D00040778000E00E00010
:205C20001D003500840F570005003D00E2407F0095C3B30040C3B30080CF500001003C00A8
:205C400005C3B3000E0041008000E9008E017800010037008100E9008301E9001142780030
:205C6000854F5200FBFF32000307E80090C3B30080CF520001003A008448E8000300E00067
:205C800005003D000201E9000E07E8006F9097000000E800E0979F006F9297008E017800A6
:205CA0008FF097007FB09700C80007004F0778004F06BE004F05BE004F04BE008F04B100F1
:205CC00000000600889FBE00800478006684400000FF2700180060004401DE00F07F200063
:205CE000800F51000E003A00800CEB00180478006F0064001C003A00210090000000E000B7
:205D000019003A00110090000000E00016003A00100020001100E0001400320012003700AF
:205D20000200E00005003C0001007800DB010700000178000000E00008003C00F00028002F
:205D40001800600001FE2300010C700020C02F00800C41000080EB0004003700800CEB0033
:205D60000000EB0001003700200020004F04BE0000000600889FBE008A1F78008C9FBE00BA
:205D8000000478000206BE00E6044000190178000200D0004505DE008A007800F07F20007A
:205DA000800F55000C003A006F00610065003A00280090000000E00062003A00180090006E
:205DC0000000E0005F003A00100020001800E0005D0032005B0037000A00E00007003A00D6
:205DE00008007800AD010700800078000000E000020034000A007800530037006108B90032
:205E00000C0140008D814800E07F2000800F5100E08F59000D0034001900E00004003D003D
:205E20006000B8000200200003FF2F00030037006000B8000200200003FF2700009CBE0000
:205E40000294BE00100020003F003700E00F5100E08F590005003400F00028001900600076
:205E6000C410DD00810C7000340037001900780001002800010360006F0060000040A0003C
:205E8000800C780061015100E0815900C0FC2F00F1FF2F00800F5100818F59000D003D00F4
:205EA000860C78000000EB002004980010049800000C7800240037008880E800110C780021
:205EC000640044009008780019087800800CEB0070014100F00F4100F7FF34008202EA0070
:205EE000150032008881E80070821200980078008508DE00130078000400DD00008C700083
:205F000064014400930078008508DE00120078000400DD0080897000920078008508DE0009
:205F2000190078000400DD0000897000190078000500DE00800C7800990C73000080EB00FB
:205F400001003700200020004F06BE004F0578004F04BE00000006000400FA00889FBE00F0
:205F60008A9FBE008C1F78000006780092BF9F00A3BF9F000404BE000401BE001FB89700B1
:205F8000AFB89700C10107000005BE000001BE000800BE00350507001FB99700AFB9970043
:205FA000000051008180590020069800310698000A8EBE000C0078004F0678004F05BE00F0
:205FC0004F04BE000080FA00000006000E00FA00889FBE008A9FBE008C9FBE0000047800F7
:205FE000014578000206780083047800840678000300E00002003C0019002000ECA6230053
:2060000060C6B300804F55000E00320060C4B300804F55000B00320070C6B300804F5500FE
:206020000300320070C4B300804F55009C003A00E48F46008000350058089000808F560087
:206040007D003D008D05E80060C6B300804F55001000320060C4B300804F55000D00320093
:20606000081090000038A30004003A0058089000808F540001003D00590C980058089000E1
:206080000B005000500C980002003B000000EB00500C98000B00E00027003C001809900096
:2060A0006800900001C3B300017079008201E800130C9800580890000000E00003003C0056
:2060C000081090000038A3000500320068009000E1C2B30001F079000280E800100C980030
:2060E000D80890000B00EA00808F500001003D008105EA000B00EA00200C980001804500AF
:20610000500C9800890F500001003D0080047800390C980068009000980890000100400023
:20612000090178008C0078007BF8070058089000090050001A00370098089000680090009D
:206140008B8F540018003D0001004000090178008C00780070F807001808900000814400D1
:20616000120C980009805500200C9800580890000000E00003003C00081090000038A30035
:2061800006003200E8009000E0C2B30080707900380890000000E800300C98005808900015
:2061A000400C9800A6003700010040000B0178008C00780058F80700180890000081450088
:2061C000120C98008B845400580890000000E00003003C00081090000038A30005003200DD
:2061E00068009000E1C2B300017079000200E800100C980058089000890F500001003D00B3
:20620000800478006800900098089000010040008B004600090178003FF8070018089000D8
:2062200000804400100C98005808900009005000200C98008200370070C6B300804F550013
:206240000300320070C4B300804F550014003A0058089000808F540004003D000810900074
:206260000038A30001003A00590C9800580890000000E900500C980002003B000000EB0016
:20628000500C980070C6B300804F550002003A005AC6B3000B0037005AC4B300090037009B
:2062A00010C6B300804F550002003A000AC7B3000400370010C4B300804F550001003A0050
:2062C0000AC5B30018099000680090003C7079008201E800130C98000C02780058089000D6
:2062E0000000E00003003C00081090000038A30017003200E8009000E0C2B30080F07900FD
:206300008280E800110C9800580890000000E0000F0034008904E900890F500001003D002F
:206320008004780068009000008040000901780084007800F8F707001808900000804400C1
:20634000100C98005808900009005000200C98006800900098089000010040000086E800A5
:206360000A587800800078000D00E00004003500B0C2B300804878008C047800040037007D
:20638000D0C2B300804878008C0478008D06EA008005EB000A003700A20020008D0078007B
:2063A00070805700890007000FB897009FB897007A81550001F17F008B05E8008006780083
:2063C0000D00E000F4FF3C00E18F550009003C0050C6B300804F55000300320050C4B300AE
:2063E000804F550003003A0000C3B300005E78008C0478000B00E000040032000B00E900D3
:20640000FA805700008040000600370000C3B300805C7800050037008B05E90002C3B300B7
:20642000A05C41000B00E000FBFF3C0068009000980890000100400000805400300C9800ED
:206440000810900074006000F00F50000E003A00780090009808900001004000A808900070
:2064600001004000B808900001004000C80890008100400078089000808F500002003D007B
:2064800001005000000C98004F06BE004F05BE004F04BE000080FA000000060000027800D7
:2064A000E60240001500780001002800810360006F006000800A780012003A002400900049
:2064C0000000E0000F003A00140090000000E0000C003A00160020001400E0003800320035
:2064E00008003700E4004200910A78000480E8009008780014087800000AEB007003530059
:2065000001003700160020001500E000F5FF320013003700640142008000400012007800B7
:206520004F00DE00808A70008481E8009200780081804000130078004F00DE0000897000CB
:206540009300780081804000140078004F00DE008089700014007800000A40000603E900F5
:2065600015007800EF0F5000EAFF3600100037000481E8009400D100120078004F00DD0052
:20658000008A7000E40042009201D100110078004F00DD00008971001101D1001500780058
:2065A0004F00DD0080087100950AD1000603E80015007800FF0F5000EDFF3E00EF0A6000E7
:2065C000958A7300060078000000060002027800809FBE00110009008200D800000178005F
:2065E0004F00BE0002A2B90084805000110098000208780000000600889FBE0080047800CB
:206600000408E20004003A000000EB00100007000000E0000A003500204080000900E00064
:2066200002003A0000047800060037000004780009004000060007000000E00001003D0075
:206640000084EB00080078004F04BE0000000600800078000000E00004003A0020A7230034
:206660002040880001017800060037000081EB0020A72500808F500002003E00214088009B
:206680000001EB000200780000000600839F68000100E00002003D0060001000E0801800FC
:2066A0000300E00002003D0060011100E0811900A90007004F00E00002003B006000100040
:2066C000E080180000000600889FBE008A9FBE00010578000100E0000400350008003C0094
:2066E0000000E000200032000500370060001000E080180002003B0001F02C001A00370099
:206700000004BE006011B8006B0920000982CF00020039000882CF000441B000694252001A
:206720000E00320008003B0082817100610164008904D1000884D3008B05E8000442E80039
:20674000F9FF3A00050037000804440089844C008B05E9000442E900FBFF3A0099010700A5
:206760000AF0A70001F0A0004F05BE004F04BE000000060003F0A200889FBE008A9FBE005D
:206780008C1F7800B5010700BC0133006450E1004F0032006420E1005200320003826C0039
:2067A00007003B000905D0000306D000820F54000C065D000200390002003200890178001B
:2067C000030678008582550004003D000003FD008103FD008502EA008B854200840F720052
:2067E00002003B0060001000E08018006011B8000005EB007A28E1000A0039000600780017
:20680000C75DDD00F707B200878075002D003700828171000A017800610560008180D10058
:206820000080D3008502E900F9FF3B00060440008784480002003B0060041400E0841C0090
:206840000988A300070032008A81710082817100610164008904D1000884D3008B05E800E0
:20686000170037000978A30013003A000B00E000130034008B05E9000804440089844C0005
:206880000A4474000978A3000D003A000B00E000070034008B05E9000804440089844C0083
:2068A00001003A000B0020000978A300F7FF32000001EB0002003700828171000A0178000A
:2068C000400107000CF0A70001F0A000740137006420E10002003A00838F6C0074013300C9
:2068E0000801BE000200BE006D0137000001BE00720107000470A70003F0A10003F8A300E6
:2069000013003A006509B10010003200090035006928E100020035000100280000000500B4
:2069200000004000818048008502E900FCFF3A0000000600F88F4200050035008100D100CE
:206940000080D3008502E800FCFF3A00000006008000EB00000005006022B8000602200068
:206960000000D0008180D2000482D2008582D2000000A0000202520083825A0003003100BA
:206980000202420083824A000000A1000603E900F3FF3A0000000600881F78000004780002
:2069A0005001BE004000BE0004004000858048000601490087814900009CBE000294BE00EA
:2069C0000400E1000588E1000690E1000798E10002003100680044001008E8004F047800C3
:2069E00000000600F4874700889FBE008A9FBE008C9FBE008E1F78000205BE000004BE006E
:206A0000D4B79F00E5B79F00F6B79F0087BF9F000000EB00C0B79F00B0B79F00A0B79F00E3
:206A200090B79F0080B79F000D042000BFB097004FB09700000140000000E0000F003D0060
:206A40004F08DE0000007100C0B79F009E00070001003D0012002000A100070001003D007F
:206A600012002000A6000700B1000700B60007000F004000C8FF0700220037004F08DE0017
:206A800000067100CCB79F008F00070001003D00120020009200070001003D00120020004E
:206AA00097000700A20007000FB297009FB297002FB39700BFB39700A900070000005200CB
:206AC00081805A0002015B0083815B0080B79F0091B79F00A2B79F00B3B79F000007EB00EE
:206AE0009F0007000020E10001A8E10002B0E10003B8E100010031001E0020000E00560062
:206B0000C0B79F004FB297000400E0000700350010002000010020006011B80008047000B1
:206B2000898470000A0571008B8571008D06E900BEFF3A000400E00003003D0082000700B7
:206B40000F00400094FF07004FA897000000E00004003A000FB497009FB497002FB59700E1
:206B6000BFB59700940007004F0778004F06BE004F05BE004F04BE004F01B1000000060064
:206B8000881F780018002000881F780095FF07008F87E9004F04780000000600801FEB008A
:206BA00090FF07008F87E90000000600889FBE008A9FBE008C1F78006E00070007003D0092
:206BC00073000700E00F5B00E08F5B0007003D00320007000006EB00040037003400070043
:206BE00002003D002A0007001C00200072000700E3FF07000203BE000002BE000C00E00018
:206C000001003200220007000400BE000601BE004F0678004F05BE004F04BE00000006009B
:206C2000889FBE008A9FBE008C1F78005100070005003D0056000700E00F5B00E08F5B005A
:206C400006003D00040037001900070003003D006000B8006011B8001000070056000700A1
:206C6000CEFF07000203BE000002BE000C00E00001003200060007000400BE000601BE000A
:206C80004F0678004F05BE004F04BE00000006006000B8006011B800000037000402500030
:206CA000858258000603590087835900000006000006EB00E00F5200E08F5A00E00F5B0065
:206CC000E08F5B00000006000180400090B79F000001EB008FB097000100E0000000060094
:206CE0000200700090B79F000180400080B79F000001EB00FFA897000100E0000000060094
:206D00000200700080B79F00018040006FAA9700CF20DE0001007000F0AF9F0004024200F6
:206D2000250007004F18DE000002720000000600E4AF9F000804440089844C000A054D0031
:206D40008B854D00000006003FB29700CFB297005FB39700EFB3970000FE2F00000006001B
:206D60003FB09700CFB097005FB19700EFB19700000006000205BE000004BE00E00F5000CD
:206D8000E08F5800E00F5900E08F5900000006006000B8006011B800080450008984580014
:206DA0000A0559008B8559001C002000E00F5200E08F5A00000006000800BE000A01BE0027
:206DC0000000060081002000618055000B003D000B00200061FE2F000100E1001D003400A2
:206DE00082817100610164008904D1000884D3000000E800FAFF3A0071002000610064002B
:206E000003007000020060000900320061044400E0844C000988A500050032008B05E80024
:206E20006808E10002003A008904D1000884D300F20F20000258E10005003D00C75DDD0069
:206E4000F907B2008980750008007800000006000BF827008B007800000005000004BE0088
:206E6000160007000003BE000405BE000200BE0012000700844F7500000006000200BE0086
:206E80006450E100050036006420E100020036000968A30001003A000800BE000160A0006F
:206EA0004F0678004F05BE004F04BE0000000600F0FF2F00F1FF2700F9FF3700C70ADE00C9
:206EC000F107B200F50FB20008003200E1CF4200020032000170A00024000500810F7000B8
:206EE000010032000408050044000500810F700002003A00140005008502E9000000400000
:206F000081C04800FCFF3B000170A0002400050081037800E9FF07000001BE006000B800B6
:206F20000478A30013003A006220E10015003E000D0039008301D1000281D3008180D3006A
:206F40008301D1000281D3008180D3008301D1000281D3008180D3000538B000C42ADD007B
:206F6000F300B2008381720007F0A70003F0A00000000600F3FF2700F2FF2F006110B9005C
:206F8000FBFF370003FF2700F7FF3700889FBE008A9FBE008C1F78000205BE000004BE00F4
:206FA0000006EB00E00F5000E08F5800E00F5900E08F590007003D006000B8006011B80045
:206FC00008045000898458000A0559008B8559001C002000E00F5200E08F5A00E00F5B008F
:206FE000E08F5B0002003D000F0007000C00A2000800BE000A01BE00220107000203BE0048
:207000000002BE000C00E00001003200060007000400BE000601BE004F0678004F05BE001E
:207020004F04BE00000006006000B8006011B800040250008582580006035900878359007E
:20704000000006008F1FD100300107008F87E9000000E000000006001400FA00889FBE009B
:207060008A9FBE008C9FBE000004BE000205BE00680047000A90BE000890BE004C01070008
:207080000070A7000BF0A100304320009E02900080825200B0FE2F000028E10011003D00F2
:2070A000B0FC2F000028E100150034001E0990008E0890007E0090000501B0000201D1002E
:2070C0008180D3000080D3008502E800FBFF3A000B00E00071013B0060001000E080180066
:2070E0006E013700F0FF2F00F1FF27000B00E0006A013B000100280000002000670137003C
:207100006000B800650137004F89DE00820178006701370007F0A2009C013700809FEB00F3
:20712000FA0007008F87E9000000E000000006002800FA00889FBE008A9FBE008C9FBE0092
:2071400003866B00410107000028A30064003A000128A30067003A000008A30062003A00D5
:207160000108A30065003A001E009000BE08900081064000ED3FB100F4805700EE019000D2
:20718000111AB8008E099000311BB8009E099000311CB800511DB800F48557004600070062
:2071A000FE0190003A0007008B85E8003E0007008E09900040000700EE019000340007009A
:2071C0008B85E800380007008E099000400007009E0990001B18B800890440000A85480044
:2071E000FE019000340007008B85E80038000700EE019000300007008E0990001B18B800C6
:20720000890440000A8548000A98A30008003A000402420085824A0006034B0087834B0001
:2072200008044C0089844C000A054D008D06E90084827200850273004C3ADD0085027200F7
:207240000100320015002000443ADE001400B2004538DE00CB45DD000B007000C540DE00FE
